:100E12000313831605140313831285010313831628
:100E22000610031383128601031383160814881411
:100E32000815031383128801031383160710871002
:100E420007118711071287120713871303138312DF
:100E52008701031383160910031383128901920178
:100E620000309200030108183F2F8818492F0819F3
:100E72003B2F522F003092007F2F342F0A30120264
:100E8200031D920A12080710F827F827F827342FB3
:100E920000301202031D92031208F827F827F827E0
:100EA200342F0030120203197F2F0130120203196E
:100EB2008A2F023012020319952F033012020319EE
:100EC200A02F043012020319AB2F053012020319AE
:100ED200B62F063012020319C12F0730120203196E
:100EE200CC2F083012020319D72F0930120203192E
:100EF200E22F0A3012020319ED2F342F0710871048
:100F02000711871107128712071387130910F82791
:100F1200342F07148710071187110712871207133E
:100F220087130910F827342F071087140711871128
:100F320007128712071387130910F827342F071097
:100F420087100715871107128712071387130910D5
:100F5200F827342F071087100711871507128712F9
:100F6200071387130910F827342F0710871007116A
:100F7200871107168712071387130910F827342FD2
:100F82000710871007118711071287160713871397
:100F92000910F827342F071087100711871107123D
:100FA2008712071787130910F827342F07108710A5
:100FB2000711871107128712071387170910F827DD
:100FC200342F071087100711871107128712071392
:100FD20087130914F827342F071487140715871568
:100FE20007168716071787170914F827342F90302A
:0E0FF20090009100900BFB2F910BFB2F003411
:04400E00F520FF3F5B
:00000001FF
